{
  "_format": "hh-sol-artifact-1",
  "contractName": "Token1",
  "sourceName": "contracts/Token1.sol",
  "abi": [
    {
      "inputs": [],
      "stateMutability": "nonpayable",
      "type": "constructor"
    },
    {
      "anonymous": false,
      "inputs": [
        {
          "indexed": true,
          "internalType": "address",
          "name": "owner",
          "type": "address"
        },
        {
          "indexed": true,
          "internalType": "address",
          "name": "spender",
          "type": "address"
        },
        {
          "indexed": false,
          "internalType": "uint256",
          "name": "value",
          "type": "uint256"
        }
      ],
      "name": "Approval",
      "type": "event"
    },
    {
      "anonymous": false,
      "inputs": [
        {
          "indexed": true,
          "internalType": "address",
          "name": "delegator",
          "type": "address"
        },
        {
          "indexed": true,
          "internalType": "address",
          "name": "fromDelegate",
          "type": "address"
        },
        {
          "indexed": true,
          "internalType": "address",
          "name": "toDelegate",
          "type": "address"
        }
      ],
      "name": "DelegateChanged",
      "type": "event"
    },
    {
      "anonymous": false,
      "inputs": [
        {
          "indexed": true,
          "internalType": "address",
          "name": "delegate",
          "type": "address"
        },
        {
          "indexed": false,
          "internalType": "uint256",
          "name": "previousBalance",
          "type": "uint256"
        },
        {
          "indexed": false,
          "internalType": "uint256",
          "name": "newBalance",
          "type": "uint256"
        }
      ],
      "name": "DelegateVotesChanged",
      "type": "event"
    },
    {
      "anonymous": false,
      "inputs": [
        {
          "indexed": true,
          "internalType": "address",
          "name": "previousOwner",
          "type": "address"
        },
        {
          "indexed": true,
          "internalType": "address",
          "name": "newOwner",
          "type": "address"
        }
      ],
      "name": "OwnershipTransferred",
      "type": "event"
    },
    {
      "anonymous": false,
      "inputs": [
        {
          "indexed": false,
          "internalType": "address",
          "name": "account",
          "type": "address"
        }
      ],
      "name": "Paused",
      "type": "event"
    },
    {
      "anonymous": false,
      "inputs": [
        {
          "indexed": false,
          "internalType": "uint256",
          "name": "id",
          "type": "uint256"
        }
      ],
      "name": "Snapshot",
      "type": "event"
    },
    {
      "anonymous": false,
      "inputs": [
        {
          "indexed": true,
          "internalType": "address",
          "name": "from",
          "type": "address"
        },
        {
          "indexed": true,
          "internalType": "address",
          "name": "to",
          "type": "address"
        },
        {
          "indexed": false,
          "internalType": "uint256",
          "name": "value",
          "type": "uint256"
        }
      ],
      "name": "Transfer",
      "type": "event"
    },
    {
      "anonymous": false,
      "inputs": [
        {
          "indexed": false,
          "internalType": "address",
          "name": "account",
          "type": "address"
        }
      ],
      "name": "Unpaused",
      "type": "event"
    },
    {
      "inputs": [],
      "name": "DOMAIN_SEPARATOR",
      "outputs": [
        {
          "internalType": "bytes32",
          "name": "",
          "type": "bytes32"
        }
      ],
      "stateMutability": "view",
      "type": "function"
    },
    {
      "inputs": [
        {
          "internalType": "address",
          "name": "owner",
          "type": "address"
        },
        {
          "internalType": "address",
          "name": "spender",
          "type": "address"
        }
      ],
      "name": "allowance",
      "outputs": [
        {
          "internalType": "uint256",
          "name": "",
          "type": "uint256"
        }
      ],
      "stateMutability": "view",
      "type": "function"
    },
    {
      "inputs": [
        {
          "internalType": "address",
          "name": "spender",
          "type": "address"
        },
        {
          "internalType": "uint256",
          "name": "amount",
          "type": "uint256"
        }
      ],
      "name": "approve",
      "outputs": [
        {
          "internalType": "bool",
          "name": "",
          "type": "bool"
        }
      ],
      "stateMutability": "nonpayable",
      "type": "function"
    },
    {
      "inputs": [
        {
          "internalType": "address",
          "name": "account",
          "type": "address"
        }
      ],
      "name": "balanceOf",
      "outputs": [
        {
          "internalType": "uint256",
          "name": "",
          "type": "uint256"
        }
      ],
      "stateMutability": "view",
      "type": "function"
    },
    {
      "inputs": [
        {
          "internalType": "address",
          "name": "account",
          "type": "address"
        },
        {
          "internalType": "uint256",
          "name": "snapshotId",
          "type": "uint256"
        }
      ],
      "name": "balanceOfAt",
      "outputs": [
        {
          "internalType": "uint256",
          "name": "",
          "type": "uint256"
        }
      ],
      "stateMutability": "view",
      "type": "function"
    },
    {
      "inputs": [
        {
          "internalType": "uint256",
          "name": "amount",
          "type": "uint256"
        }
      ],
      "name": "burn",
      "outputs": [],
      "stateMutability": "nonpayable",
      "type": "function"
    },
    {
      "inputs": [
        {
          "internalType": "address",
          "name": "account",
          "type": "address"
        },
        {
          "internalType": "uint256",
          "name": "amount",
          "type": "uint256"
        }
      ],
      "name": "burnFrom",
      "outputs": [],
      "stateMutability": "nonpayable",
      "type": "function"
    },
    {
      "inputs": [
        {
          "internalType": "address",
          "name": "account",
          "type": "address"
        },
        {
          "internalType": "uint32",
          "name": "pos",
          "type": "uint32"
        }
      ],
      "name": "checkpoints",
      "outputs": [
        {
          "components": [
            {
              "internalType": "uint32",
              "name": "fromBlock",
              "type": "uint32"
            },
            {
              "internalType": "uint224",
              "name": "votes",
              "type": "uint224"
            }
          ],
          "internalType": "struct ERC20Votes.Checkpoint",
          "name": "",
          "type": "tuple"
        }
      ],
      "stateMutability": "view",
      "type": "function"
    },
    {
      "inputs": [],
      "name": "decimals",
      "outputs": [
        {
          "internalType": "uint8",
          "name": "",
          "type": "uint8"
        }
      ],
      "stateMutability": "view",
      "type": "function"
    },
    {
      "inputs": [
        {
          "internalType": "address",
          "name": "spender",
          "type": "address"
        },
        {
          "internalType": "uint256",
          "name": "subtractedValue",
          "type": "uint256"
        }
      ],
      "name": "decreaseAllowance",
      "outputs": [
        {
          "internalType": "bool",
          "name": "",
          "type": "bool"
        }
      ],
      "stateMutability": "nonpayable",
      "type": "function"
    },
    {
      "inputs": [
        {
          "internalType": "address",
          "name": "delegatee",
          "type": "address"
        }
      ],
      "name": "delegate",
      "outputs": [],
      "stateMutability": "nonpayable",
      "type": "function"
    },
    {
      "inputs": [
        {
          "internalType": "address",
          "name": "delegatee",
          "type": "address"
        },
        {
          "internalType": "uint256",
          "name": "nonce",
          "type": "uint256"
        },
        {
          "internalType": "uint256",
          "name": "expiry",
          "type": "uint256"
        },
        {
          "internalType": "uint8",
          "name": "v",
          "type": "uint8"
        },
        {
          "internalType": "bytes32",
          "name": "r",
          "type": "bytes32"
        },
        {
          "internalType": "bytes32",
          "name": "s",
          "type": "bytes32"
        }
      ],
      "name": "delegateBySig",
      "outputs": [],
      "stateMutability": "nonpayable",
      "type": "function"
    },
    {
      "inputs": [
        {
          "internalType": "address",
          "name": "account",
          "type": "address"
        }
      ],
      "name": "delegates",
      "outputs": [
        {
          "internalType": "address",
          "name": "",
          "type": "address"
        }
      ],
      "stateMutability": "view",
      "type": "function"
    },
    {
      "inputs": [
        {
          "internalType": "address",
          "name": "token",
          "type": "address"
        },
        {
          "internalType": "uint256",
          "name": "amount",
          "type": "uint256"
        }
      ],
      "name": "flashFee",
      "outputs": [
        {
          "internalType": "uint256",
          "name": "",
          "type": "uint256"
        }
      ],
      "stateMutability": "view",
      "type": "function"
    },
    {
      "inputs": [
        {
          "internalType": "contract IERC3156FlashBorrower",
          "name": "receiver",
          "type": "address"
        },
        {
          "internalType": "address",
          "name": "token",
          "type": "address"
        },
        {
          "internalType": "uint256",
          "name": "amount",
          "type": "uint256"
        },
        {
          "internalType": "bytes",
          "name": "data",
          "type": "bytes"
        }
      ],
      "name": "flashLoan",
      "outputs": [
        {
          "internalType": "bool",
          "name": "",
          "type": "bool"
        }
      ],
      "stateMutability": "nonpayable",
      "type": "function"
    },
    {
      "inputs": [
        {
          "internalType": "uint256",
          "name": "blockNumber",
          "type": "uint256"
        }
      ],
      "name": "getPastTotalSupply",
      "outputs": [
        {
          "internalType": "uint256",
          "name": "",
          "type": "uint256"
        }
      ],
      "stateMutability": "view",
      "type": "function"
    },
    {
      "inputs": [
        {
          "internalType": "address",
          "name": "account",
          "type": "address"
        },
        {
          "internalType": "uint256",
          "name": "blockNumber",
          "type": "uint256"
        }
      ],
      "name": "getPastVotes",
      "outputs": [
        {
          "internalType": "uint256",
          "name": "",
          "type": "uint256"
        }
      ],
      "stateMutability": "view",
      "type": "function"
    },
    {
      "inputs": [
        {
          "internalType": "address",
          "name": "account",
          "type": "address"
        }
      ],
      "name": "getVotes",
      "outputs": [
        {
          "internalType": "uint256",
          "name": "",
          "type": "uint256"
        }
      ],
      "stateMutability": "view",
      "type": "function"
    },
    {
      "inputs": [
        {
          "internalType": "address",
          "name": "spender",
          "type": "address"
        },
        {
          "internalType": "uint256",
          "name": "addedValue",
          "type": "uint256"
        }
      ],
      "name": "increaseAllowance",
      "outputs": [
        {
          "internalType": "bool",
          "name": "",
          "type": "bool"
        }
      ],
      "stateMutability": "nonpayable",
      "type": "function"
    },
    {
      "inputs": [
        {
          "internalType": "address",
          "name": "token",
          "type": "address"
        }
      ],
      "name": "maxFlashLoan",
      "outputs": [
        {
          "internalType": "uint256",
          "name": "",
          "type": "uint256"
        }
      ],
      "stateMutability": "view",
      "type": "function"
    },
    {
      "inputs": [
        {
          "internalType": "address",
          "name": "to",
          "type": "address"
        },
        {
          "internalType": "uint256",
          "name": "amount",
          "type": "uint256"
        }
      ],
      "name": "mint",
      "outputs": [],
      "stateMutability": "nonpayable",
      "type": "function"
    },
    {
      "inputs": [],
      "name": "name",
      "outputs": [
        {
          "internalType": "string",
          "name": "",
          "type": "string"
        }
      ],
      "stateMutability": "view",
      "type": "function"
    },
    {
      "inputs": [
        {
          "internalType": "address",
          "name": "owner",
          "type": "address"
        }
      ],
      "name": "nonces",
      "outputs": [
        {
          "internalType": "uint256",
          "name": "",
          "type": "uint256"
        }
      ],
      "stateMutability": "view",
      "type": "function"
    },
    {
      "inputs": [
        {
          "internalType": "address",
          "name": "account",
          "type": "address"
        }
      ],
      "name": "numCheckpoints",
      "outputs": [
        {
          "internalType": "uint32",
          "name": "",
          "type": "uint32"
        }
      ],
      "stateMutability": "view",
      "type": "function"
    },
    {
      "inputs": [],
      "name": "owner",
      "outputs": [
        {
          "internalType": "address",
          "name": "",
          "type": "address"
        }
      ],
      "stateMutability": "view",
      "type": "function"
    },
    {
      "inputs": [],
      "name": "pause",
      "outputs": [],
      "stateMutability": "nonpayable",
      "type": "function"
    },
    {
      "inputs": [],
      "name": "paused",
      "outputs": [
        {
          "internalType": "bool",
          "name": "",
          "type": "bool"
        }
      ],
      "stateMutability": "view",
      "type": "function"
    },
    {
      "inputs": [
        {
          "internalType": "address",
          "name": "owner",
          "type": "address"
        },
        {
          "internalType": "address",
          "name": "spender",
          "type": "address"
        },
        {
          "internalType": "uint256",
          "name": "value",
          "type": "uint256"
        },
        {
          "internalType": "uint256",
          "name": "deadline",
          "type": "uint256"
        },
        {
          "internalType": "uint8",
          "name": "v",
          "type": "uint8"
        },
        {
          "internalType": "bytes32",
          "name": "r",
          "type": "bytes32"
        },
        {
          "internalType": "bytes32",
          "name": "s",
          "type": "bytes32"
        }
      ],
      "name": "permit",
      "outputs": [],
      "stateMutability": "nonpayable",
      "type": "function"
    },
    {
      "inputs": [],
      "name": "renounceOwnership",
      "outputs": [],
      "stateMutability": "nonpayable",
      "type": "function"
    },
    {
      "inputs": [],
      "name": "snapshot",
      "outputs": [],
      "stateMutability": "nonpayable",
      "type": "function"
    },
    {
      "inputs": [],
      "name": "symbol",
      "outputs": [
        {
          "internalType": "string",
          "name": "",
          "type": "string"
        }
      ],
      "stateMutability": "view",
      "type": "function"
    },
    {
      "inputs": [],
      "name": "totalSupply",
      "outputs": [
        {
          "internalType": "uint256",
          "name": "",
          "type": "uint256"
        }
      ],
      "stateMutability": "view",
      "type": "function"
    },
    {
      "inputs": [
        {
          "internalType": "uint256",
          "name": "snapshotId",
          "type": "uint256"
        }
      ],
      "name": "totalSupplyAt",
      "outputs": [
        {
          "internalType": "uint256",
          "name": "",
          "type": "uint256"
        }
      ],
      "stateMutability": "view",
      "type": "function"
    },
    {
      "inputs": [
        {
          "internalType": "address",
          "name": "to",
          "type": "address"
        },
        {
          "internalType": "uint256",
          "name": "amount",
          "type": "uint256"
        }
      ],
      "name": "transfer",
      "outputs": [
        {
          "internalType": "bool",
          "name": "",
          "type": "bool"
        }
      ],
      "stateMutability": "nonpayable",
      "type": "function"
    },
    {
      "inputs": [
        {
          "internalType": "address",
          "name": "from",
          "type": "address"
        },
        {
          "internalType": "address",
          "name": "to",
          "type": "address"
        },
        {
          "internalType": "uint256",
          "name": "amount",
          "type": "uint256"
        }
      ],
      "name": "transferFrom",
      "outputs": [
        {
          "internalType": "bool",
          "name": "",
          "type": "bool"
        }
      ],
      "stateMutability": "nonpayable",
      "type": "function"
    },
    {
      "inputs": [
        {
          "internalType": "address",
          "name": "newOwner",
          "type": "address"
        }
      ],
      "name": "transferOwnership",
      "outputs": [],
      "stateMutability": "nonpayable",
      "type": "function"
    },
    {
      "inputs": [],
      "name": "unpause",
      "outputs": [],
      "stateMutability": "nonpayable",
      "type": "function"
    }
  ],
  "bytecode": "0x6101606040527f6e71edae12b1b97f4d1f60370fef10105fa2faae0126114a169c64845d6126c9610140908152503480156200003a57600080fd5b506040518060400160405280600781526020017f4d79546f6b656e00000000000000000000000000000000000000000000000000815250806040518060400160405280600181526020017f31000000000000000000000000000000000000000000000000000000000000008152506040518060400160405280600781526020017f4d79546f6b656e000000000000000000000000000000000000000000000000008152506040518060400160405280600381526020017f4d544b000000000000000000000000000000000000000000000000000000000081525081600390805190602001906200012c9291906200107a565b508060049080519060200190620001459291906200107a565b505050620001686200015c6200025b60201b60201c565b6200026360201b60201c565b6000600960146101000a81548160ff02191690831515021790555060008280519060200120905060008280519060200120905060007f8b73c3c69bb8fe3d512ecc4cf759cc79239f7b179b0ffacaa9a75d522b39400f90508260e081815250508161010081815250504660a08181525050620001ec8184846200032960201b60201c565b608081815250503073ffffffffffffffffffffffffffffffffffffffff1660c08173ffffffffffffffffffffffffffffffffffffffff1660601b81525050806101208181525050505050505050620002553369021e19e0c9bab24000006200036560201b60201c565b620015ef565b600033905090565b6000600960009054906101000a900473ffffffffffffffffffffffffffffffffffffffff16905081600960006101000a81548173ffffffffffffffffffffffffffffffffffffffff021916908373ffffffffffffffffffffffffffffffffffffffff1602179055508173ffffffffffffffffffffffffffffffffffffffff168173ffffffffffffffffffffffffffffffffffffffff167f8be0079c531659141344cd1fd0a4f28419497f9722a3daafe3b4186f6b6457e060405160405180910390a35050565b600083838346306040516020016200034695949392919062001319565b6040516020818303038152906040528051906020012090509392505050565b6200037c82826200038060201b620019f61760201c565b5050565b6200039782826200043e60201b62001a831760201c565b620003a7620005b760201b60201c565b7bffffffffffffffffffffffffffffffffffffffffffffffffffffffff16620003d5620005db60201b60201c565b111562000419576040517f08c379a0000000000000000000000000000000000000000000000000000000008152600401620004109062001398565b60405180910390fd5b62000438600d620005e560201b62001be31783620005fd60201b60201c565b50505050565b600073ffffffffffffffffffffffffffffffffffffffff168273ffffffffffffffffffffffffffffffffffffffff161415620004b1576040517f08c379a0000000000000000000000000000000000000000000000000000000008152600401620004a890620013fe565b60405180910390fd5b620004c5600083836200091a60201b60201c565b8060026000828254620004d991906200147b565b92505081905550806000808473ffffffffffffffffffffffffffffffffffffffff1673ffffffffffffffffffffffffffffffffffffffff16815260200190815260200160002060008282546200053091906200147b565b925050819055508173ffffffffffffffffffffffffffffffffffffffff16600073ffffffffffffffffffffffffffffffffffffffff167fddf252ad1be2c89b69c2b068fc378daa952ba7f163c4a11628f55a4df523b3ef8360405162000597919062001420565b60405180910390a3620005b3600083836200098a60201b60201c565b5050565b60007bffffffffffffffffffffffffffffffffffffffffffffffffffffffff905090565b6000600254905090565b60008183620005f591906200147b565b905092915050565b60008060008580549050905060008114620006965785600182620006229190620014d8565b815481106200065a577f4e487b7100000000000000000000000000000000000000000000000000000000600052603260045260246000fd5b9060005260206000200160000160049054906101000a90047bffffffffffffffffffffffffffffffffffffffffffffffffffffffff1662000699565b60005b7bffffffffffffffffffffffffffffffffffffffffffffffffffffffff169250620006c583858760201c565b91506000811180156200074257504386600183620006e49190620014d8565b815481106200071c577f4e487b7100000000000000000000000000000000000000000000000000000000600052603260045260246000fd5b9060005260206000200160000160009054906101000a900463ffffffff1663ffffffff16145b1562000807576200075e82620009a760201b62001bf91760201c565b866001836200076e9190620014d8565b81548110620007a6577f4e487b7100000000000000000000000000000000000000000000000000000000600052603260045260246000fd5b9060005260206000200160000160046101000a8154817bffffffffffffffffffffffffffffffffffffffffffffffffffffffff02191690837bffffffffffffffffffffffffffffffffffffffffffffffffffffffff16021790555062000911565b856040518060400160405280620008294362000a1560201b62001c641760201c565b63ffffffff1681526020016200084a85620009a760201b62001bf91760201c565b7bffffffffffffffffffffffffffffffffffffffffffffffffffffffff168152509080600181540180825580915050600190039060005260206000200160009091909190915060008201518160000160006101000a81548163ffffffff021916908363ffffffff16021790555060208201518160000160046101000a8154817bffffffffffffffffffffffffffffffffffffffffffffffffffffffff02191690837bffffffffffffffffffffffffffffffffffffffffffffffffffffffff16021790555050505b50935093915050565b6200092a62000a6b60201b60201c565b156200096d576040517f08c379a0000000000000000000000000000000000000000000000000000000008152600401620009649062001376565b60405180910390fd5b6200098583838362000a8260201b62001cb71760201c565b505050565b620009a283838362000b7d60201b62001d711760201c565b505050565b60007bffffffffffffffffffffffffffffffffffffffffffffffffffffffff801682111562000a0d576040517f08c379a000000000000000000000000000000000000000000000000000000000815260040162000a0490620013ba565b60405180910390fd5b819050919050565b600063ffffffff801682111562000a63576040517f08c379a000000000000000000000000000000000000000000000000000000000815260040162000a5a90620013dc565b60405180910390fd5b819050919050565b6000600960149054906101000a900460ff16905090565b62000a9a83838362000bcd60201b62001d9c1760201c565b600073ffffffffffffffffffffffffffffffffffffffff168373ffffffffffffffffffffffffffffffffffffffff16141562000af75762000ae18262000bd260201b60201c565b62000af162000c3560201b60201c565b62000b78565b600073ffffffffffffffffffffffffffffffffffffffff168273ffffffffffffffffffffffffffffffffffffffff16141562000b545762000b3e8362000bd260201b60201c565b62000b4e62000c3560201b60201c565b62000b77565b62000b658362000bd260201b60201c565b62000b768262000bd260201b60201c565b5b5b505050565b62000b9583838362000c5960201b62001da11760201c565b62000bc862000baa8462000c5e60201b60201c565b62000bbb8462000c5e60201b60201c565b8362000cc760201b60201c565b505050565b505050565b62000c32600560008373ffffffffffffffffffffffffffffffffffffffff1673ffffffffffffffffffffffffffffffffffffffff16815260200190815260200160002062000c268362000eea60201b60201c565b62000f3260201b60201c565b50565b62000c57600662000c4b620005db60201b60201c565b62000f3260201b60201c565b565b505050565b6000600b60008373ffffffffffffffffffffffffffffffffffffffff1673ffffffffffffffffffffffffffffffffffffffff16815260200190815260200160002060009054906101000a900473ffffffffffffffffffffffffffffffffffffffff169050919050565b8173ffffffffffffffffffffffffffffffffffffffff168373ffffffffffffffffffffffffffffffffffffffff161415801562000d045750600081115b1562000ee557600073ffffffffffffffffffffffffffffffffffffffff168373ffffffffffffffffffffffffffffffffffffffff161462000df75760008062000d9e600c60008773ffffffffffffffffffffffffffffffffffffffff1673ffffffffffffffffffffffffffffffffffffffff16815260200190815260200160002062000fbe60201b62001da61785620005fd60201b60201c565b915091508473ffffffffffffffffffffffffffffffffffffffff167fdec2bacdd2f05b59de34da9b523dff8be42e5e38e818c82fdb0bae774387a724838360405162000dec9291906200143d565b60405180910390a250505b600073ffffffffffffffffffffffffffffffffffffffff168273ffffffffffffffffffffffffffffffffffffffff161462000ee45760008062000e8b600c60008673ffffffffffffffffffffffffffffffffffffffff1673ffffffffffffffffffffffffffffffffffffffff168152602001908152602001600020620005e560201b62001be31785620005fd60201b60201c565b915091508373ffffffffffffffffffffffffffffffffffffffff167fdec2bacdd2f05b59de34da9b523dff8be42e5e38e818c82fdb0bae774387a724838360405162000ed99291906200143d565b60405180910390a250505b5b505050565b60008060008373ffffffffffffffffffffffffffffffffffffffff1673ffffffffffffffffffffffffffffffffffffffff168152602001908152602001600020549050919050565b600062000f4462000fd660201b60201c565b90508062000f5b8460000162000ff460201b60201c565b101562000fb95782600001819080600181540180825580915050600190039060005260206000200160009091909190915055826001018290806001815401808255809150506001900390600052602060002001600090919091909150555b505050565b6000818362000fce9190620014d8565b905092915050565b600062000fef60086200106c60201b62001dbc1760201c565b905090565b600080828054905014156200100d576000905062001067565b8160018380549050620010219190620014d8565b8154811062001059577f4e487b7100000000000000000000000000000000000000000000000000000000600052603260045260246000fd5b906000526020600020015490505b919050565b600081600001549050919050565b82805462001088906200155b565b90600052602060002090601f016020900481019282620010ac5760008555620010f8565b82601f10620010c757805160ff1916838001178555620010f8565b82800160010185558215620010f8579182015b82811115620010f7578251825591602001919060010190620010da565b5b5090506200110791906200110b565b5090565b5b80821115620011265760008160009055506001016200110c565b5090565b620011358162001513565b82525050565b620011468162001527565b82525050565b60006200115b6010836200146a565b91507f5061757361626c653a20706175736564000000000000000000000000000000006000830152602082019050919050565b60006200119d6030836200146a565b91507f4552433230566f7465733a20746f74616c20737570706c79207269736b73206f60008301527f766572666c6f77696e6720766f746573000000000000000000000000000000006020830152604082019050919050565b6000620012056027836200146a565b91507f53616665436173743a2076616c756520646f65736e27742066697420696e203260008301527f32342062697473000000000000000000000000000000000000000000000000006020830152604082019050919050565b60006200126d6026836200146a565b91507f53616665436173743a2076616c756520646f65736e27742066697420696e203360008301527f32206269747300000000000000000000000000000000000000000000000000006020830152604082019050919050565b6000620012d5601f836200146a565b91507f45524332303a206d696e7420746f20746865207a65726f2061646472657373006000830152602082019050919050565b620013138162001551565b82525050565b600060a0820190506200133060008301886200113b565b6200133f60208301876200113b565b6200134e60408301866200113b565b6200135d606083018562001308565b6200136c60808301846200112a565b9695505050505050565b6000602082019050818103600083015262001391816200114c565b9050919050565b60006020820190508181036000830152620013b3816200118e565b9050919050565b60006020820190508181036000830152620013d581620011f6565b9050919050565b60006020820190508181036000830152620013f7816200125e565b9050919050565b600060208201905081810360008301526200141981620012c6565b9050919050565b600060208201905062001437600083018462001308565b92915050565b600060408201905062001454600083018562001308565b62001463602083018462001308565b9392505050565b600082825260208201905092915050565b6000620014888262001551565b9150620014958362001551565b9250827fffffffffffffffffffffffffffffffffffffffffffffffffffffffffffffffff03821115620014cd57620014cc62001591565b5b828201905092915050565b6000620014e58262001551565b9150620014f28362001551565b92508282101562001508576200150762001591565b5b828203905092915050565b6000620015208262001531565b9050919050565b6000819050919050565b600073ffffffffffffffffffffffffffffffffffffffff82169050919050565b6000819050919050565b600060028204905060018216806200157457607f821691505b602082108114156200158b576200158a620015c0565b5b50919050565b7f4e487b7100000000000000000000000000000000000000000000000000000000600052601160045260246000fd5b7f4e487b7100000000000000000000000000000000000000000000000000000000600052602260045260246000fd5b60805160a05160c05160601c60e0516101005161012051610140516153e46200164d60003960006115cc015260006123580152600061239a01526000612379015260006122ae015260006123040152600061232d01526153e46000f3fe608060405234801561001057600080fd5b50600436106102275760003560e01c806370a0823111610130578063981b24d0116100b8578063d505accf1161007c578063d505accf146106b2578063d9d98ce4146106ce578063dd62ed3e146106fe578063f1127ed81461072e578063f2fde38b1461075e57610227565b8063981b24d0146105d65780639ab24eb014610606578063a457c2d714610636578063a9059cbb14610666578063c3cda5201461069657610227565b80638456cb59116100ff5780638456cb59146105565780638da5cb5b146105605780638e539e8c1461057e57806395d89b41146105ae5780639711715a146105cc57610227565b806370a08231146104d0578063715018a61461050057806379cc67901461050a5780637ecebe001461052657610227565b806340c10f19116101b35780635c19a95c116101825780635c19a95c146104065780635c975abb146104225780635cffe9de14610440578063613255ab146104705780636fcfff45146104a057610227565b806340c10f191461036e57806342966c681461038a5780634ee2cd7e146103a6578063587cde1e146103d657610227565b8063313ce567116101fa578063313ce567146102c85780633644e515146102e657806339509351146103045780633a46b1a8146103345780633f4ba83a1461036457610227565b806306fdde031461022c578063095ea7b31461024a57806318160ddd1461027a57806323b872dd14610298575b600080fd5b61023461077a565b6040516102419190614bb5565b60405180910390f35b610264600480360381019061025f9190613bd6565b61080c565b6040516102719190614a41565b60405180910390f35b61028261082f565b60405161028f9190614ff2565b60405180910390f35b6102b260048036038101906102ad9190613ae9565b610839565b6040516102bf9190614a41565b60405180910390f35b6102d0610868565b6040516102dd9190615051565b60405180910390f35b6102ee610871565b6040516102fb9190614a5c565b60405180910390f35b61031e60048036038101906103199190613bd6565b610880565b60405161032b9190614a41565b60405180910390f35b61034e60048036038101906103499190613bd6565b61092a565b60405161035b9190614ff2565b60405180910390f35b61036c6109be565b005b61038860048036038101906103839190613bd6565b610a44565b005b6103a4600480360381019061039f9190613d80565b610ace565b005b6103c060048036038101906103bb9190613bd6565b610ae2565b6040516103cd9190614ff2565b60405180910390f35b6103f060048036038101906103eb9190613a84565b610b52565b6040516103fd91906149ca565b60405180910390f35b610420600480360381019061041b9190613a84565b610bbb565b005b61042a610bcf565b6040516104379190614a41565b60405180910390f35b61045a60048036038101906104559190613d00565b610be6565b6040516104679190614a41565b60405180910390f35b61048a60048036038101906104859190613a84565b610de2565b6040516104979190614ff2565b60405180910390f35b6104ba60048036038101906104b59190613a84565b610e59565b6040516104c79190615036565b60405180910390f35b6104ea60048036038101906104e59190613a84565b610ead565b6040516104f79190614ff2565b60405180910390f35b610508610ef5565b005b610524600480360381019061051f9190613bd6565b610f7d565b005b610540600480360381019061053b9190613a84565b610f9d565b60405161054d9190614ff2565b60405180910390f35b61055e610fed565b005b610568611073565b60405161057591906149ca565b60405180910390f35b61059860048036038101906105939190613d80565b61109d565b6040516105a59190614ff2565b60405180910390f35b6105b66110f3565b6040516105c39190614bb5565b60405180910390f35b6105d4611185565b005b6105f060048036038101906105eb9190613d80565b61120c565b6040516105fd9190614ff2565b60405180910390f35b610620600480360381019061061b9190613a84565b61123d565b60405161062d9190614ff2565b60405180910390f35b610650600480360381019061064b9190613bd6565b611374565b60405161065d9190614a41565b60405180910390f35b610680600480360381019061067b9190613bd6565b61145e565b60405161068d9190614a41565b60405180910390f35b6106b060048036038101906106ab9190613c12565b611481565b005b6106cc60048036038101906106c79190613b38565b611585565b005b6106e860048036038101906106e39190613bd6565b6116c7565b6040516106f59190614ff2565b60405180910390f35b61071860048036038101906107139190613aad565b611741565b6040516107259190614ff2565b60405180910390f35b61074860048036038101906107439190613c9b565b6117c8565b6040516107559190614fd7565b60405180910390f35b61077860048036038101906107739190613a84565b6118fe565b005b6060600380546107899061524a565b80601f01602080910402602001604051908101604052809291908181526020018280546107b59061524a565b80156108025780601f106107d757610100808354040283529160200191610802565b820191906000526020600020905b8154815290600101906020018083116107e557829003601f168201915b5050505050905090565b600080610817611dca565b9050610824818585611dd2565b600191505092915050565b6000600254905090565b600080610844611dca565b9050610851858285611f9d565b61085c858585612029565b60019150509392505050565b60006012905090565b600061087b6122aa565b905090565b60008061088b611dca565b905061091f818585600160008673ffffffffffffffffffffffffffffffffffffffff1673ffffffffffffffffffffffffffffffffffffffff16815260200190815260200160002060008973ffffffffffffffffffffffffffffffffffffffff1673ffffffffffffffffffffffffffffffffffffffff1681526020019081526020016000205461091a91906150a4565b611dd2565b600191505092915050565b600043821061096e576040517f08c379a000000000000000000000000000000000000000000000000000000000815260040161096590614c37565b60405180910390fd5b6109b6600c60008573ffffffffffffffffffffffffffffffffffffffff1673ffffffffffffffffffffffffffffffffffffffff168152602001908152602001600020836123c4565b905092915050565b6109c6611dca565b73ffffffffffffffffffffffffffffffffffffffff166109e4611073565b73ffffffffffffffffffffffffffffffffffffffff1614610a3a576040517f08c379a0000000000000000000000000000000000000000000000000000000008152600401610a3190614e77565b60405180910390fd5b610a4261251c565b565b610a4c611dca565b73ffffffffffffffffffffffffffffffffffffffff16610a6a611073565b73ffffffffffffffffffffffffffffffffffffffff1614610ac0576040517f08c379a0000000000000000000000000000000000000000000000000000000008152600401610ab790614e77565b60405180910390fd5b610aca82826125be565b5050565b610adf610ad9611dca565b826125cc565b50565b6000806000610b2f84600560008873ffffffffffffffffffffffffffffffffffffffff1673ffffffffffffffffffffffffffffffffffffffff1681526020019081526020016000206125da565b9150915081610b4657610b4185610ead565b610b48565b805b9250505092915050565b6000600b60008373ffffffffffffffffffffffffffffffffffffffff1673ffffffffffffffffffffffffffffffffffffffff16815260200190815260200160002060009054906101000a900473ffffffffffffffffffffffffffffffffffffffff169050919050565b610bcc610bc6611dca565b826126f6565b50565b6000600960149054906101000a900460ff16905090565b6000610bf185610de2565b841115610c33576040517f08c379a0000000000000000000000000000000000000000000000000000000008152600401610c2a90614eb7565b60405180910390fd5b6000610c3f86866116c7565b9050610c4b87866125be565b7f439148f0bbc682ca079e46d6e2c2f0c1e3b820f1a291b069d8882abf8cf18dd98773ffffffffffffffffffffffffffffffffffffffff166323e30c8b338989868a8a6040518763ffffffff1660e01b8152600401610caf969594939291906149e5565b602060405180830381600087803b158015610cc957600080fd5b505af1158015610cdd573d6000803e3d6000fd5b505050506040513d601f19601f82011682018060405250810190610d019190613cd7565b14610d41576040517f08c379a0000000000000000000000000000000000000000000000000000000008152600401610d3890614db7565b60405180910390fd5b6000610d4d8830611741565b90508186610d5b91906150a4565b811015610d9d576040517f08c379a0000000000000000000000000000000000000000000000000000000008152600401610d9490614f77565b60405180910390fd5b610dbe8830848985610daf919061512b565b610db9919061512b565b611dd2565b610dd3888388610dce91906150a4565b6125cc565b60019250505095945050505050565b60003073ffffffffffffffffffffffffffffffffffffffff168273ffffffffffffffffffffffffffffffffffffffff1614610e1e576000610e52565b610e2661082f565b7fffffffffffffffffffffffffffffffffffffffffffffffffffffffffffffffff610e51919061512b565b5b9050919050565b6000610ea6600c60008473ffffffffffffffffffffffffffffffffffffffff1673ffffffffffffffffffffffffffffffffffffffff16815260200190815260200160002080549050611c64565b9050919050565b60008060008373ffffffffffffffffffffffffffffffffffffffff1673ffffffffffffffffffffffffffffffffffffffff168152602001908152602001600020549050919050565b610efd611dca565b73ffffffffffffffffffffffffffffffffffffffff16610f1b611073565b73ffffffffffffffffffffffffffffffffffffffff1614610f71576040517f08c379a0000000000000000000000000000000000000000000000000000000008152600401610f6890614e77565b60405180910390fd5b610f7b6000612810565b565b610f8f82610f89611dca565b83611f9d565b610f9982826125cc565b5050565b6000610fe6600a60008473ffffffffffffffffffffffffffffffffffffffff1673ffffffffffffffffffffffffffffffffffffffff168152602001908152602001600020611dbc565b9050919050565b610ff5611dca565b73ffffffffffffffffffffffffffffffffffffffff16611013611073565b73ffffffffffffffffffffffffffffffffffffffff1614611069576040517f08c379a000000000000000000000000000000000000000000000000000000000815260040161106090614e77565b60405180910390fd5b6110716128d6565b565b6000600960009054906101000a900473ffffffffffffffffffffffffffffffffffffffff16905090565b60004382106110e1576040517f08c379a00000000000000000000000000000000000000000000000000000000081526004016110d890614c37565b60405180910390fd5b6110ec600d836123c4565b9050919050565b6060600480546111029061524a565b80601f016020809104026020016040519081016040528092919081815260200182805461112e9061524a565b801561117b5780601f106111505761010080835404028352916020019161117b565b820191906000526020600020905b81548152906001019060200180831161115e57829003601f168201915b5050505050905090565b61118d611dca565b73ffffffffffffffffffffffffffffffffffffffff166111ab611073565b73ffffffffffffffffffffffffffffffffffffffff1614611201576040517f08c379a00000000000000000000000000000000000000000000000000000000081526004016111f890614e77565b60405180910390fd5b611209612979565b50565b600080600061121c8460066125da565b91509150816112325761122d61082f565b611234565b805b92505050919050565b600080600c60008473ffffffffffffffffffffffffffffffffffffffff1673ffffffffffffffffffffffffffffffffffffffff1681526020019081526020016000208054905090506000811461134b57600c60008473ffffffffffffffffffffffffffffffffffffffff1673ffffffffffffffffffffffffffffffffffffffff1681526020019081526020016000206001826112d9919061512b565b81548110611310577f4e487b7100000000000000000000000000000000000000000000000000000000600052603260045260246000fd5b9060005260206000200160000160049054906101000a90047bffffffffffffffffffffffffffffffffffffffffffffffffffffffff1661134e565b60005b7bffffffffffffffffffffffffffffffffffffffffffffffffffffffff16915050919050565b60008061137f611dca565b90506000600160008373ffffffffffffffffffffffffffffffffffffffff1673ffffffffffffffffffffffffffffffffffffffff16815260200190815260200160002060008673ffffffffffffffffffffffffffffffffffffffff1673ffffffffffffffffffffffffffffffffffffffff16815260200190815260200160002054905083811015611445576040517f08c379a000000000000000000000000000000000000000000000000000000000815260040161143c90614f97565b60405180910390fd5b6114528286868403611dd2565b60019250505092915050565b600080611469611dca565b9050611476818585612029565b600191505092915050565b834211156114c4576040517f08c379a00000000000000000000000000000000000000000000000000000000081526004016114bb90614c77565b60405180910390fd5b600061152661151e7fe48329057bfd03d55e49b547132e39cffd9c1820ad7b9d4c5307691425d15adf8989896040516020016115039493929190614ad8565b604051602081830303815290604052805190602001206129cf565b8585856129e9565b905061153181612a14565b8614611572576040517f08c379a000000000000000000000000000000000000000000000000000000000815260040161156990614cd7565b60405180910390fd5b61157c81886126f6565b50505050505050565b834211156115c8576040517f08c379a00000000000000000000000000000000000000000000000000000000081526004016115bf90614d57565b60405180910390fd5b60007f00000000000000000000000000000000000000000000000000000000000000008888886115f78c612a14565b8960405160200161160d96959493929190614a77565b6040516020818303038152906040528051906020012090506000611630826129cf565b90506000611640828787876129e9565b90508973ffffffffffffffffffffffffffffffffffffffff168173ffffffffffffffffffffffffffffffffffffffff16146116b0576040517f08c379a00000000000000000000000000000000000000000000000000000000081526004016116a790614e37565b60405180910390fd5b6116bb8a8a8a611dd2565b50505050505050505050565b60003073ffffffffffffffffffffffffffffffffffffffff168373ffffffffffffffffffffffffffffffffffffffff1614611737576040517f08c379a000000000000000000000000000000000000000000000000000000000815260040161172e90614df7565b60405180910390fd5b6000905092915050565b6000600160008473ffffffffffffffffffffffffffffffffffffffff1673ffffffffffffffffffffffffffffffffffffffff16815260200190815260200160002060008373ffffffffffffffffffffffffffffffffffffffff1673ffffffffffffffffffffffffffffffffffffffff16815260200190815260200160002054905092915050565b6117d0613969565b600c60008473ffffffffffffffffffffffffffffffffffffffff1673ffffffffffffffffffffffffffffffffffffffff1681526020019081526020016000208263ffffffff168154811061184d577f4e487b7100000000000000000000000000000000000000000000000000000000600052603260045260246000fd5b906000526020600020016040518060400160405290816000820160009054906101000a900463ffffffff1663ffffffff1663ffffffff1681526020016000820160049054906101000a90047bffffffffffffffffffffffffffffffffffffffffffffffffffffffff167bffffffffffffffffffffffffffffffffffffffffffffffffffffffff167bffffffffffffffffffffffffffffffffffffffffffffffffffffffff1681525050905092915050565b611906611dca565b73ffffffffffffffffffffffffffffffffffffffff16611924611073565b73ffffffffffffffffffffffffffffffffffffffff161461197a576040517f08c379a000000000000000000000000000000000000000000000000000000000815260040161197190614e77565b60405180910390fd5b600073ffffffffffffffffffffffffffffffffffffffff168173ffffffffffffffffffffffffffffffffffffffff1614156119ea576040517f08c379a00000000000000000000000000000000000000000000000000000000081526004016119e190614cf7565b60405180910390fd5b6119f381612810565b50565b611a008282611a83565b611a08612a72565b7bffffffffffffffffffffffffffffffffffffffffffffffffffffffff16611a2e61082f565b1115611a6f576040517f08c379a0000000000000000000000000000000000000000000000000000000008152600401611a6690614e57565b60405180910390fd5b611a7d600d611be383612a96565b50505050565b600073ffffffffffffffffffffffffffffffffffffffff168273ffffffffffffffffffffffffffffffffffffffff161415611af3576040517f08c379a0000000000000000000000000000000000000000000000000000000008152600401611aea90614fb7565b60405180910390fd5b611aff60008383612d80565b8060026000828254611b1191906150a4565b92505081905550806000808473ffffffffffffffffffffffffffffffffffffffff1673ffffffffffffffffffffffffffffffffffffffff1681526020019081526020016000206000828254611b6691906150a4565b925050819055508173ffffffffffffffffffffffffffffffffffffffff16600073ffffffffffffffffffffffffffffffffffffffff167fddf252ad1be2c89b69c2b068fc378daa952ba7f163c4a11628f55a4df523b3ef83604051611bcb9190614ff2565b60405180910390a3611bdf60008383612dd8565b5050565b60008183611bf191906150a4565b905092915050565b60007bffffffffffffffffffffffffffffffffffffffffffffffffffffffff8016821115611c5c576040517f08c379a0000000000000000000000000000000000000000000000000000000008152600401611c5390614e97565b60405180910390fd5b819050919050565b600063ffffffff8016821115611caf576040517f08c379a0000000000000000000000000000000000000000000000000000000008152600401611ca690614f17565b60405180910390fd5b819050919050565b611cc2838383611d9c565b600073ffffffffffffffffffffffffffffffffffffffff168373ffffffffffffffffffffffffffffffffffffffff161415611d0d57611d0082612de8565b611d08612e3b565b611d6c565b600073ffffffffffffffffffffffffffffffffffffffff168273ffffffffffffffffffffffffffffffffffffffff161415611d5857611d4b83612de8565b611d53612e3b565b611d6b565b611d6183612de8565b611d6a82612de8565b5b5b505050565b611d7c838383611da1565b611d97611d8884610b52565b611d9184610b52565b83612e4f565b505050565b505050565b505050565b60008183611db4919061512b565b905092915050565b600081600001549050919050565b600033905090565b600073ffffffffffffffffffffffffffffffffffffffff168373ffffffffffffffffffffffffffffffffffffffff161415611e42576040517f08c379a0000000000000000000000000000000000000000000000000000000008152600401611e3990614f37565b60405180910390fd5b600073ffffffffffffffffffffffffffffffffffffffff168273ffffffffffffffffffffffffffffffffffffffff161415611eb2576040517f08c379a0000000000000000000000000000000000000000000000000000000008152600401611ea990614d17565b60405180910390fd5b80600160008573ffffffffffffffffffffffffffffffffffffffff1673ffffffffffffffffffffffffffffffffffffffff16815260200190815260200160002060008473ffffffffffffffffffffffffffffffffffffffff1673ffffffffffffffffffffffffffffffffffffffff168152602001908152602001600020819055508173ffffffffffffffffffffffffffffffffffffffff168373ffffffffffffffffffffffffffffffffffffffff167f8c5be1e5ebec7d5bd14f71427d1e84f3dd0314c0f7b2291e5b200ac8c7c3b92583604051611f909190614ff2565b60405180910390a3505050565b6000611fa98484611741565b90507fffffffffffffffffffffffffffffffffffffffffffffffffffffffffffffffff81146120235781811015612015576040517f08c379a000000000000000000000000000000000000000000000000000000000815260040161200c90614d37565b60405180910390fd5b6120228484848403611dd2565b5b50505050565b600073ffffffffffffffffffffffffffffffffffffffff168373ffffffffffffffffffffffffffffffffffffffff161415612099576040517f08c379a000000000000000000000000000000000000000000000000000000000815260040161209090614ef7565b60405180910390fd5b600073ffffffffffffffffffffffffffffffffffffffff168273ffffffffffffffffffffffffffffffffffffffff161415612109576040517f08c379a000000000000000000000000000000000000000000000000000000000815260040161210090614c17565b60405180910390fd5b612114838383612d80565b60008060008573ffffffffffffffffffffffffffffffffffffffff1673ffffffffffffffffffffffffffffffffffffffff1681526020019081526020016000205490508181101561219a576040517f08c379a000000000000000000000000000000000000000000000000000000000815260040161219190614d77565b60405180910390fd5b8181036000808673ffffffffffffffffffffffffffffffffffffffff1673ffffffffffffffffffffffffffffffffffffffff16815260200190815260200160002081905550816000808573ffffffffffffffffffffffffffffffffffffffff1673ffffffffffffffffffffffffffffffffffffffff168152602001908152602001600020600082825461222d91906150a4565b925050819055508273ffffffffffffffffffffffffffffffffffffffff168473ffffffffffffffffffffffffffffffffffffffff167fddf252ad1be2c89b69c2b068fc378daa952ba7f163c4a11628f55a4df523b3ef846040516122919190614ff2565b60405180910390a36122a4848484612dd8565b50505050565b60007f000000000000000000000000000000000000000000000000000000000000000073ffffffffffffffffffffffffffffffffffffffff163073ffffffffffffffffffffffffffffffffffffffff1614801561232657507f000000000000000000000000000000000000000000000000000000000000000046145b15612353577f000000000000000000000000000000000000000000000000000000000000000090506123c1565b6123be7f00000000000000000000000000000000000000000000000000000000000000007f00000000000000000000000000000000000000000000000000000000000000007f0000000000000000000000000000000000000000000000000000000000000000613048565b90505b90565b6000808380549050905060005b818110156124695760006123e58284613082565b905084868281548110612421577f4e487b7100000000000000000000000000000000000000000000000000000000600052603260045260246000fd5b9060005260206000200160000160009054906101000a900463ffffffff1663ffffffff16111561245357809250612463565b60018161246091906150a4565b91505b506123d1565b600082146124f1578460018361247f919061512b565b815481106124b6577f4e487b7100000000000000000000000000000000000000000000000000000000600052603260045260246000fd5b9060005260206000200160000160049054906101000a90047bffffffffffffffffffffffffffffffffffffffffffffffffffffffff166124f4565b60005b7bffffffffffffffffffffffffffffffffffffffffffffffffffffffff169250505092915050565b612524610bcf565b612563576040517f08c379a000000000000000000000000000000000000000000000000000000000815260040161255a90614c57565b60405180910390fd5b6000600960146101000a81548160ff0219169083151502179055507f5db9ee0a495bf2e6ff9c91a7834c1ba4fdd244a5e8aa4e537bd38aeae4b073aa6125a7611dca565b6040516125b491906149ca565b60405180910390a1565b6125c882826119f6565b5050565b6125d682826130a8565b5050565b60008060008411612620576040517f08c379a000000000000000000000000000000000000000000000000000000000815260040161261790614f57565b60405180910390fd5b6126286130c6565b84111561266a576040517f08c379a000000000000000000000000000000000000000000000000000000000815260040161266190614bf7565b60405180910390fd5b600061268285856000016130d790919063ffffffff16565b905083600001805490508114156126a05760008092509250506126ef565b60018460010182815481106126de577f4e487b7100000000000000000000000000000000000000000000000000000000600052603260045260246000fd5b906000526020600020015492509250505b9250929050565b600061270183610b52565b9050600061270e84610ead565b905082600b60008673ffffffffffffffffffffffffffffffffffffffff1673ffffffffffffffffffffffffffffffffffffffff16815260200190815260200160002060006101000a81548173ffffffffffffffffffffffffffffffffffffffff021916908373ffffffffffffffffffffffffffffffffffffffff1602179055508273ffffffffffffffffffffffffffffffffffffffff168273ffffffffffffffffffffffffffffffffffffffff168573ffffffffffffffffffffffffffffffffffffffff167f3134e8a2e6d97e929a7e54011ea5485d7d196dd5f0ba4d4ef95803e8e3fc257f60405160405180910390a461280a828483612e4f565b50505050565b6000600960009054906101000a900473ffffffffffffffffffffffffffffffffffffffff16905081600960006101000a81548173ffffffffffffffffffffffffffffffffffffffff021916908373ffffffffffffffffffffffffffffffffffffffff1602179055508173ffffffffffffffffffffffffffffffffffffffff168173ffffffffffffffffffffffffffffffffffffffff167f8be0079c531659141344cd1fd0a4f28419497f9722a3daafe3b4186f6b6457e060405160405180910390a35050565b6128de610bcf565b1561291e576040517f08c379a000000000000000000000000000000000000000000000000000000000815260040161291590614dd7565b60405180910390fd5b6001600960146101000a81548160ff0219169083151502179055507f62e78cea01bee320cd4e420270b5ea74000d11b0c9f74754ebdbfc544b05a258612962611dca565b60405161296f91906149ca565b60405180910390a1565b600061298560086131fd565b600061298f6130c6565b90507f8030e83b04d87bef53480e26263266d6ca66863aa8506aca6f2559d18aa1cb67816040516129c09190614ff2565b60405180910390a18091505090565b60006129e26129dc6122aa565b83613213565b9050919050565b60008060006129fa87878787613246565b91509150612a0781613353565b8192505050949350505050565b600080600a60008473ffffffffffffffffffffffffffffffffffffffff1673ffffffffffffffffffffffffffffffffffffffff1681526020019081526020016000209050612a6181611dbc565b9150612a6c816131fd565b50919050565b60007bffffffffffffffffffffffffffffffffffffffffffffffffffffffff905090565b60008060008580549050905060008114612b2a5785600182612ab8919061512b565b81548110612aef577f4e487b7100000000000000000000000000000000000000000000000000000000600052603260045260246000fd5b9060005260206000200160000160049054906101000a90047bffffffffffffffffffffffffffffffffffffffffffffffffffffffff16612b2d565b60005b7bffffffffffffffffffffffffffffffffffffffffffffffffffffffff169250612b5b83858763ffffffff16565b9150600081118015612bd457504386600183612b77919061512b565b81548110612bae577f4e487b7100000000000000000000000000000000000000000000000000000000600052603260045260246000fd5b9060005260206000200160000160009054906101000a900463ffffffff1663ffffffff16145b15612c8757612be282611bf9565b86600183612bf0919061512b565b81548110612c27577f4e487b7100000000000000000000000000000000000000000000000000000000600052603260045260246000fd5b9060005260206000200160000160046101000a8154817bffffffffffffffffffffffffffffffffffffffffffffffffffffffff02191690837bffffffffffffffffffffffffffffffffffffffffffffffffffffffff160217905550612d77565b856040518060400160405280612c9c43611c64565b63ffffffff168152602001612cb085611bf9565b7bffffffffffffffffffffffffffffffffffffffffffffffffffffffff168152509080600181540180825580915050600190039060005260206000200160009091909190915060008201518160000160006101000a81548163ffffffff021916908363ffffffff16021790555060208201518160000160046101000a8154817bffffffffffffffffffffffffffffffffffffffffffffffffffffffff02191690837bffffffffffffffffffffffffffffffffffffffffffffffffffffffff16021790555050505b50935093915050565b612d88610bcf565b15612dc8576040517f08c379a0000000000000000000000000000000000000000000000000000000008152600401612dbf90614dd7565b60405180910390fd5b612dd3838383611cb7565b505050565b612de3838383611d71565b505050565b612e38600560008373ffffffffffffffffffffffffffffffffffffffff1673ffffffffffffffffffffffffffffffffffffffff168152602001908152602001600020612e3383610ead565b6136a4565b50565b612e4d6006612e4861082f565b6136a4565b565b8173ffffffffffffffffffffffffffffffffffffffff168373ffffffffffffffffffffffffffffffffffffffff1614158015612e8b5750600081115b1561304357600073ffffffffffffffffffffffffffffffffffffffff168373ffffffffffffffffffffffffffffffffffffffff1614612f6957600080612f12600c60008773ffffffffffffffffffffffffffffffffffffffff1673ffffffffffffffffffffffffffffffffffffffff168152602001908152602001600020611da685612a96565b915091508473ffffffffffffffffffffffffffffffffffffffff167fdec2bacdd2f05b59de34da9b523dff8be42e5e38e818c82fdb0bae774387a7248383604051612f5e92919061500d565b60405180910390a250505b600073ffffffffffffffffffffffffffffffffffffffff168273ffffffffffffffffffffffffffffffffffffffff161461304257600080612feb600c60008673ffffffffffffffffffffffffffffffffffffffff1673ffffffffffffffffffffffffffffffffffffffff168152602001908152602001600020611be385612a96565b915091508373ffffffffffffffffffffffffffffffffffffffff167fdec2bacdd2f05b59de34da9b523dff8be42e5e38e818c82fdb0bae774387a724838360405161303792919061500d565b60405180910390a250505b5b505050565b60008383834630604051602001613063959493929190614b1d565b6040516020818303038152906040528051906020012090509392505050565b6000600282841861309391906150fa565b8284166130a091906150a4565b905092915050565b6130b2828261371f565b6130c0600d611da683612a96565b50505050565b60006130d26008611dbc565b905090565b600080838054905014156130ee57600090506131f7565b600080848054905090505b8082101561317857600061310d8383613082565b905084868281548110613149577f4e487b7100000000000000000000000000000000000000000000000000000000600052603260045260246000fd5b9060005260206000200154111561316257809150613172565b60018161316f91906150a4565b92505b506130f9565b6000821180156131d657508385600184613192919061512b565b815481106131c9577f4e487b7100000000000000000000000000000000000000000000000000000000600052603260045260246000fd5b9060005260206000200154145b156131f1576001826131e8919061512b565b925050506131f7565b81925050505b92915050565b6001816000016000828254019250508190555050565b60008282604051602001613228929190614993565b60405160208183030381529060405280519060200120905092915050565b6000807f7fffffffffffffffffffffffffffffff5d576e7357a4501ddfe92f46681b20a08360001c111561328157600060039150915061334a565b601b8560ff16141580156132995750601c8560ff1614155b156132ab57600060049150915061334a565b6000600187878787604051600081526020016040526040516132d09493929190614b70565b6020604051602081039080840390855afa1580156132f2573d6000803e3d6000fd5b505050602060405103519050600073ffffffffffffffffffffffffffffffffffffffff168173ffffffffffffffffffffffffffffffffffffffff1614156133415760006001925092505061334a565b80600092509250505b94509492505050565b6000600481111561338d577f4e487b7100000000000000000000000000000000000000000000000000000000600052602160045260246000fd5b8160048111156133c6577f4e487b7100000000000000000000000000000000000000000000000000000000600052602160045260246000fd5b14156133d1576136a1565b6001600481111561340b577f4e487b7100000000000000000000000000000000000000000000000000000000600052602160045260246000fd5b816004811115613444577f4e487b7100000000000000000000000000000000000000000000000000000000600052602160045260246000fd5b1415613485576040517f08c379a000000000000000000000000000000000000000000000000000000000815260040161347c90614bd7565b60405180910390fd5b600260048111156134bf577f4e487b7100000000000000000000000000000000000000000000000000000000600052602160045260246000fd5b8160048111156134f8577f4e487b7100000000000000000000000000000000000000000000000000000000600052602160045260246000fd5b1415613539576040517f08c379a000000000000000000000000000000000000000000000000000000000815260040161353090614cb7565b60405180910390fd5b60036004811115613573577f4e487b7100000000000000000000000000000000000000000000000000000000600052602160045260246000fd5b8160048111156135ac577f4e487b7100000000000000000000000000000000000000000000000000000000600052602160045260246000fd5b14156135ed576040517f08c379a00000000000000000000000000000000000000000000000000000000081526004016135e490614d97565b60405180910390fd5b600480811115613626577f4e487b7100000000000000000000000000000000000000000000000000000000600052602160045260246000fd5b81600481111561365f577f4e487b7100000000000000000000000000000000000000000000000000000000600052602160045260246000fd5b14156136a0576040517f08c379a000000000000000000000000000000000000000000000000000000000815260040161369790614e17565b60405180910390fd5b5b50565b60006136ae6130c6565b9050806136bd846000016138f6565b101561371a5782600001819080600181540180825580915050600190039060005260206000200160009091909190915055826001018290806001815401808255809150506001900390600052602060002001600090919091909150555b505050565b600073ffffffffffffffffffffffffffffffffffffffff168273ffffffffffffffffffffffffffffffffffffffff16141561378f576040517f08c379a000000000000000000000000000000000000000000000000000000000815260040161378690614ed7565b60405180910390fd5b61379b82600083612d80565b60008060008473ffffffffffffffffffffffffffffffffffffffff1673ffffffffffffffffffffffffffffffffffffffff16815260200190815260200160002054905081811015613821576040517f08c379a000000000000000000000000000000000000000000000000000000000815260040161381890614c97565b60405180910390fd5b8181036000808573ffffffffffffffffffffffffffffffffffffffff1673ffffffffffffffffffffffffffffffffffffffff168152602001908152602001600020819055508160026000828254613878919061512b565b92505081905550600073ffffffffffffffffffffffffffffffffffffffff168373ffffffffffffffffffffffffffffffffffffffff167fddf252ad1be2c89b69c2b068fc378daa952ba7f163c4a11628f55a4df523b3ef846040516138dd9190614ff2565b60405180910390a36138f183600084612dd8565b505050565b6000808280549050141561390d5760009050613964565b816001838054905061391f919061512b565b81548110613956577f4e487b7100000000000000000000000000000000000000000000000000000000600052603260045260246000fd5b906000526020600020015490505b919050565b6040518060400160405280600063ffffffff16815260200160007bffffffffffffffffffffffffffffffffffffffffffffffffffffffff1681525090565b6000813590506139b681615324565b92915050565b6000813590506139cb8161533b565b92915050565b6000815190506139e08161533b565b92915050565b60008083601f8401126139f857600080fd5b8235905067ffffffffffffffff811115613a1157600080fd5b602083019150836001820283011115613a2957600080fd5b9250929050565b600081359050613a3f81615352565b92915050565b600081359050613a5481615369565b92915050565b600081359050613a6981615380565b92915050565b600081359050613a7e81615397565b92915050565b600060208284031215613a9657600080fd5b6000613aa4848285016139a7565b91505092915050565b60008060408385031215613ac057600080fd5b6000613ace858286016139a7565b9250506020613adf858286016139a7565b9150509250929050565b600080600060608486031215613afe57600080fd5b6000613b0c868287016139a7565b9350506020613b1d868287016139a7565b9250506040613b2e86828701613a45565b9150509250925092565b600080600080600080600060e0888a031215613b5357600080fd5b6000613b618a828b016139a7565b9750506020613b728a828b016139a7565b9650506040613b838a828b01613a45565b9550506060613b948a828b01613a45565b9450506080613ba58a828b01613a6f565b93505060a0613bb68a828b016139bc565b92505060c0613bc78a828b016139bc565b91505092959891949750929550565b60008060408385031215613be957600080fd5b6000613bf7858286016139a7565b9250506020613c0885828601613a45565b9150509250929050565b60008060008060008060c08789031215613c2b57600080fd5b6000613c3989828a016139a7565b9650506020613c4a89828a01613a45565b9550506040613c5b89828a01613a45565b9450506060613c6c89828a01613a6f565b9350506080613c7d89828a016139bc565b92505060a0613c8e89828a016139bc565b9150509295509295509295565b60008060408385031215613cae57600080fd5b6000613cbc858286016139a7565b9250506020613ccd85828601613a5a565b9150509250929050565b600060208284031215613ce957600080fd5b6000613cf7848285016139d1565b91505092915050565b600080600080600060808688031215613d1857600080fd5b6000613d2688828901613a30565b9550506020613d37888289016139a7565b9450506040613d4888828901613a45565b935050606086013567ffffffffffffffff811115613d6557600080fd5b613d71888289016139e6565b92509250509295509295909350565b600060208284031215613d9257600080fd5b6000613da084828501613a45565b91505092915050565b613db28161515f565b82525050565b613dc181615171565b82525050565b613dd08161517d565b82525050565b613de7613de28261517d565b61527c565b82525050565b6000613df98385615077565b9350613e06838584615208565b613e0f83615313565b840190509392505050565b6000613e258261506c565b613e2f8185615088565b9350613e3f818560208601615217565b613e4881615313565b840191505092915050565b6000613e60601883615088565b91507f45434453413a20696e76616c6964207369676e617475726500000000000000006000830152602082019050919050565b6000613ea0601d83615088565b91507f4552433230536e617073686f743a206e6f6e6578697374656e742069640000006000830152602082019050919050565b6000613ee0602383615088565b91507f45524332303a207472616e7366657220746f20746865207a65726f206164647260008301527f65737300000000000000000000000000000000000000000000000000000000006020830152604082019050919050565b6000613f46601f83615088565b91507f4552433230566f7465733a20626c6f636b206e6f7420796574206d696e6564006000830152602082019050919050565b6000613f86601483615088565b91507f5061757361626c653a206e6f74207061757365640000000000000000000000006000830152602082019050919050565b6000613fc6601d83615088565b91507f4552433230566f7465733a207369676e617475726520657870697265640000006000830152602082019050919050565b6000614006602283615088565b91507f45524332303a206275726e20616d6f756e7420657863656564732062616c616e60008301527f63650000000000000000000000000000000000000000000000000000000000006020830152604082019050919050565b600061406c601f83615088565b91507f45434453413a20696e76616c6964207369676e6174757265206c656e677468006000830152602082019050919050565b60006140ac601983615088565b91507f4552433230566f7465733a20696e76616c6964206e6f6e6365000000000000006000830152602082019050919050565b60006140ec602683615088565b91507f4f776e61626c653a206e6577206f776e657220697320746865207a65726f206160008301527f64647265737300000000000000000000000000000000000000000000000000006020830152604082019050919050565b6000614152602283615088565b91507f45524332303a20617070726f766520746f20746865207a65726f20616464726560008301527f73730000000000000000000000000000000000000000000000000000000000006020830152604082019050919050565b60006141b8600283615099565b91507f19010000000000000000000000000000000000000000000000000000000000006000830152600282019050919050565b60006141f8601d83615088565b91507f45524332303a20696e73756666696369656e7420616c6c6f77616e63650000006000830152602082019050919050565b6000614238601d83615088565b91507f45524332305065726d69743a206578706972656420646561646c696e650000006000830152602082019050919050565b6000614278602683615088565b91507f45524332303a207472616e7366657220616d6f756e742065786365656473206260008301527f616c616e636500000000000000000000000000000000000000000000000000006020830152604082019050919050565b60006142de602283615088565b91507f45434453413a20696e76616c6964207369676e6174757265202773272076616c60008301527f75650000000000000000000000000000000000000000000000000000000000006020830152604082019050919050565b6000614344602483615088565b91507f4552433230466c6173684d696e743a20696e76616c69642072657475726e207660008301527f616c7565000000000000000000000000000000000000000000000000000000006020830152604082019050919050565b60006143aa601083615088565b91507f5061757361626c653a20706175736564000000000000000000000000000000006000830152602082019050919050565b60006143ea601b83615088565b91507f4552433230466c6173684d696e743a2077726f6e6720746f6b656e00000000006000830152602082019050919050565b600061442a602283615088565b91507f45434453413a20696e76616c6964207369676e6174757265202776272076616c60008301527f75650000000000000000000000000000000000000000000000000000000000006020830152604082019050919050565b6000614490601e83615088565b91507f45524332305065726d69743a20696e76616c6964207369676e617475726500006000830152602082019050919050565b60006144d0603083615088565b91507f4552433230566f7465733a20746f74616c20737570706c79207269736b73206f60008301527f766572666c6f77696e6720766f746573000000000000000000000000000000006020830152604082019050919050565b6000614536602083615088565b91507f4f776e61626c653a2063616c6c6572206973206e6f7420746865206f776e65726000830152602082019050919050565b6000614576602783615088565b91507f53616665436173743a2076616c756520646f65736e27742066697420696e203260008301527f32342062697473000000000000000000000000000000000000000000000000006020830152604082019050919050565b60006145dc602b83615088565b91507f4552433230466c6173684d696e743a20616d6f756e742065786365656473206d60008301527f6178466c6173684c6f616e0000000000000000000000000000000000000000006020830152604082019050919050565b6000614642602183615088565b91507f45524332303a206275726e2066726f6d20746865207a65726f2061646472657360008301527f73000000000000000000000000000000000000000000000000000000000000006020830152604082019050919050565b60006146a8602583615088565b91507f45524332303a207472616e736665722066726f6d20746865207a65726f20616460008301527f64726573730000000000000000000000000000000000000000000000000000006020830152604082019050919050565b600061470e602683615088565b91507f53616665436173743a2076616c756520646f65736e27742066697420696e203360008301527f32206269747300000000000000000000000000000000000000000000000000006020830152604082019050919050565b6000614774602483615088565b91507f45524332303a20617070726f76652066726f6d20746865207a65726f2061646460008301527f72657373000000000000000000000000000000000000000000000000000000006020830152604082019050919050565b60006147da601683615088565b91507f4552433230536e617073686f743a2069642069732030000000000000000000006000830152602082019050919050565b600061481a602f83615088565b91507f4552433230466c6173684d696e743a20616c6c6f77616e636520646f6573206e60008301527f6f7420616c6c6f7720726566756e6400000000000000000000000000000000006020830152604082019050919050565b6000614880602583615088565b91507f45524332303a2064656372656173656420616c6c6f77616e63652062656c6f7760008301527f207a65726f0000000000000000000000000000000000000000000000000000006020830152604082019050919050565b60006148e6601f83615088565b91507f45524332303a206d696e7420746f20746865207a65726f2061646472657373006000830152602082019050919050565b60408201600082015161492f6000850182614966565b5060208201516149426020850182614948565b50505050565b614951816151b9565b82525050565b614960816151e1565b82525050565b61496f816151eb565b82525050565b61497e816151eb565b82525050565b61498d816151fb565b82525050565b600061499e826141ab565b91506149aa8285613dd6565b6020820191506149ba8284613dd6565b6020820191508190509392505050565b60006020820190506149df6000830184613da9565b92915050565b600060a0820190506149fa6000830189613da9565b614a076020830188613da9565b614a146040830187614957565b614a216060830186614957565b8181036080830152614a34818486613ded565b9050979650505050505050565b6000602082019050614a566000830184613db8565b92915050565b6000602082019050614a716000830184613dc7565b92915050565b600060c082019050614a8c6000830189613dc7565b614a996020830188613da9565b614aa66040830187613da9565b614ab36060830186614957565b614ac06080830185614957565b614acd60a0830184614957565b979650505050505050565b6000608082019050614aed6000830187613dc7565b614afa6020830186613da9565b614b076040830185614957565b614b146060830184614957565b95945050505050565b600060a082019050614b326000830188613dc7565b614b3f6020830187613dc7565b614b4c6040830186613dc7565b614b596060830185614957565b614b666080830184613da9565b9695505050505050565b6000608082019050614b856000830187613dc7565b614b926020830186614984565b614b9f6040830185613dc7565b614bac6060830184613dc7565b95945050505050565b60006020820190508181036000830152614bcf8184613e1a565b905092915050565b60006020820190508181036000830152614bf081613e53565b9050919050565b60006020820190508181036000830152614c1081613e93565b9050919050565b60006020820190508181036000830152614c3081613ed3565b9050919050565b60006020820190508181036000830152614c5081613f39565b9050919050565b60006020820190508181036000830152614c7081613f79565b9050919050565b60006020820190508181036000830152614c9081613fb9565b9050919050565b60006020820190508181036000830152614cb081613ff9565b9050919050565b60006020820190508181036000830152614cd08161405f565b9050919050565b60006020820190508181036000830152614cf08161409f565b9050919050565b60006020820190508181036000830152614d10816140df565b9050919050565b60006020820190508181036000830152614d3081614145565b9050919050565b60006020820190508181036000830152614d50816141eb565b9050919050565b60006020820190508181036000830152614d708161422b565b9050919050565b60006020820190508181036000830152614d908161426b565b9050919050565b60006020820190508181036000830152614db0816142d1565b9050919050565b60006020820190508181036000830152614dd081614337565b9050919050565b60006020820190508181036000830152614df08161439d565b9050919050565b60006020820190508181036000830152614e10816143dd565b9050919050565b60006020820190508181036000830152614e308161441d565b9050919050565b60006020820190508181036000830152614e5081614483565b9050919050565b60006020820190508181036000830152614e70816144c3565b9050919050565b60006020820190508181036000830152614e9081614529565b9050919050565b60006020820190508181036000830152614eb081614569565b9050919050565b60006020820190508181036000830152614ed0816145cf565b9050919050565b60006020820190508181036000830152614ef081614635565b9050919050565b60006020820190508181036000830152614f108161469b565b9050919050565b60006020820190508181036000830152614f3081614701565b9050919050565b60006020820190508181036000830152614f5081614767565b9050919050565b60006020820190508181036000830152614f70816147cd565b9050919050565b60006020820190508181036000830152614f908161480d565b9050919050565b60006020820190508181036000830152614fb081614873565b9050919050565b60006020820190508181036000830152614fd0816148d9565b9050919050565b6000604082019050614fec6000830184614919565b92915050565b60006020820190506150076000830184614957565b92915050565b60006040820190506150226000830185614957565b61502f6020830184614957565b9392505050565b600060208201905061504b6000830184614975565b92915050565b60006020820190506150666000830184614984565b92915050565b600081519050919050565b600082825260208201905092915050565b600082825260208201905092915050565b600081905092915050565b60006150af826151e1565b91506150ba836151e1565b9250827fffffffffffffffffffffffffffffffffffffffffffffffffffffffffffffffff038211156150ef576150ee615286565b5b828201905092915050565b6000615105826151e1565b9150615110836151e1565b9250826151205761511f6152b5565b5b828204905092915050565b6000615136826151e1565b9150615141836151e1565b92508282101561515457615153615286565b5b828203905092915050565b600061516a82615199565b9050919050565b60008115159050919050565b6000819050919050565b60006151928261515f565b9050919050565b600073ffffffffffffffffffffffffffffffffffffffff82169050919050565b60007bffffffffffffffffffffffffffffffffffffffffffffffffffffffff82169050919050565b6000819050919050565b600063ffffffff82169050919050565b600060ff82169050919050565b82818337600083830152505050565b60005b8381101561523557808201518184015260208101905061521a565b83811115615244576000848401525b50505050565b6000600282049050600182168061526257607f821691505b60208210811415615276576152756152e4565b5b50919050565b6000819050919050565b7f4e487b7100000000000000000000000000000000000000000000000000000000600052601160045260246000fd5b7f4e487b7100000000000000000000000000000000000000000000000000000000600052601260045260246000fd5b7f4e487b7100000000000000000000000000000000000000000000000000000000600052602260045260246000fd5b6000601f19601f8301169050919050565b61532d8161515f565b811461533857600080fd5b50565b6153448161517d565b811461534f57600080fd5b50565b61535b81615187565b811461536657600080fd5b50565b615372816151e1565b811461537d57600080fd5b50565b615389816151eb565b811461539457600080fd5b50565b6153a0816151fb565b81146153ab57600080fd5b5056fea264697066735822122042184f2e8e056767ecad62ed79b49b41291d865d5de5bd54194c78f8b81bc61864736f6c63430008000033",
  "linkReferences": {},
  "deployedLinkReferences": {}
}